S01600004750494F204C454420426C696E6B2E73726563DA
S11300000C942A000C9434000C9434000C943400A6
S11300100C9434000C9434000C9434000C9434008C
S11300200C9434000C9434000C9434000C9434007C
S11300300C9434000C9434000C9434000C9434006C
S11300400C9434000C9434000C9434000C9434005C
S11300500C94340011241FBECFE5D8E0DEBFCDBF21
S11300600E9436000C9452000C94000084B3826009
S113007084BB85B3826085BB2FEF89E698E121506C
S113008080409040E1F700C0000085B38D7F85BBC0
S11300902FEF89E698E1215080409040E1F700C0BD
S10B00A00000E7CFF894FFCF44
S9030000FC
